S00C00004F7264692E737265638A
S113000071C000008EC000008CC000008AC00000D7
S113001088C0000086C0000084C0000082C00000C8
S113002080C000007EC000007CC000007AC00000D8
S113003078C0000076C0000074C0000072C00000E8
S113004070C000006EC000006CC000006AC00000F8
S113005068C0000066C0000064C0000062C0000008
S113006060C000005EC000005CC000005AC0000018
S113007058C0000056C0000054C0000052C0000028
S113008050C000004EC000004CC000004AC0000038
S113009048C0000046C0000044C0000042C0000048
S11300A040C000003EC000003CC000003AC0000058
S11300B038C0000036C0000034C0000032C0000068
S11300C030C000002EC000002CC000002AC0000078
S11300D028C0000026C0000024C0000022C0000088
S11300E020C0000011241FBECFEFD1E2DEBFCDBF80
S11300F000E00CBF12E0A0E0B2E0EEE9F3E000E0C3
S11301000BBF02C007900D92AE35B107D9F722E0BC
S1130110AEE5B2E001C01D92AE3AB207E1F725D1D7
S11301203CC16ECF88E080937B0087E080937A00A7
S11301308FEF80937D000895FC0120812223C1F07C
S1130140FB0130813323D9F023130EC0DC01119657
S1130150319602C092130AC0BF019D91992341F0C8
S113016021912111F7CF0BC080E0089580E008951C
S113017081E0FB019081992341F080E0089581E0C2
S1130180FB019081911101C080E00895EF92FF92EC
S11301900F931F93CF93DF937C0100E012E0C0E044
S11301A0D0E0B801C701C8DF882311F08C2F07C045
S11301B02196065F1F4FC630D10599F786E0DF917F
S11301C0CF911F910F91FF90EF900895FB01208133
S11301D0222341F031960196DC0111972C93219151
S11301E02111F9CFFC01108208950F931F93CF932F
S11301F0DF93AC018B01DB018C918032D9F49B013C
S11302002F5F3F4FF9012F5F3F4F90819032D1F321
S113021012C09E012F5F3F4FA901FD0198839D915C
S1130220E901292F2F7DA9F7DA011C92BF01C8012A
S1130230CDDF08C0FB0190819923B1F3EA01DF010E
S11302401196E7CFDF91CF911F910F910895EF920F
S1130250FF920F931F93CF93DF93CDB7DEB72A9707
S11302600FB6F894DEBF0FBECDBF8C010F2EFCE796
S1130270EF2EF2E0FF2EF02DB801CE010196B5DF8E
S11302808981882359F0BE016F5F7F4FC7019EDFCC
S11302908AE0E80EF11C89818111EECF2A960FB60F
S11302A0F894DEBF0FBECDBFDF91CF911F910F91A8
S11302B0FF90EF90089582E08093C00088E18093DE
S11302C0C10086E08093C20087E690E09093C50069
S11302D08093C4000895E0ECF0E0908195FFFDCF99
S11302E08093C6000895CF93DF93EC01888188231F
S11302F029F02196F0DF89918111FCCFDF91CF9114
S11303000895E0ECF0E080818823ECF78091C6004A
S11303100895EF92FF920F931F93CF938C01E12CDA
S1130320F12CEFDFC82F883059F08D30B1F0D3DFD6
S1130330F801C083FFEFEF1AFF0A0F5F1F4FF1CFE1
S11303401E141F0474F788E0C6DF80E2C4DF88E06F
S1130350C2DFF80112928F01E4CFF8011082CF912D
S11303601F910F91FF90EF900895A5DFDBDE8CE3E2
S113037092E0B9DF88E692E0CCDF88E692E067DFBE
S11303808CE792E003DF833021F484E592E0ABDF75
S111039003C089E592E0A7DFFFCFF894FFCF0A
S113039E63660000000000000000776600000000A5
S11303AE0000000072620000000000000000777080
S11303BE0000000000000000727000000000000049
S11303CE0000726100000000000000000A0D457379
S11303DE637269626120737520636F6D616E646F01
S11103EE3A0A0D000A0D5349000A0D4E4F0045
S9030000FC
