:1000000071C000008EC000008CC000008AC00000DB
:1000100088C0000086C0000084C0000082C00000CC
:1000200080C000007EC000007CC000007AC00000DC
:1000300078C0000076C0000074C0000072C00000EC
:1000400070C000006EC000006CC000006AC00000FC
:1000500068C0000066C0000064C0000062C000000C
:1000600060C000005EC000005CC000005AC000001C
:1000700058C0000056C0000054C0000052C000002C
:1000800050C000004EC000004CC000004AC000003C
:1000900048C0000046C0000044C0000042C000004C
:1000A00040C000003EC000003CC000003AC000005C
:1000B00038C0000036C0000034C0000032C000006C
:1000C00030C000002EC000002CC000002AC000007C
:1000D00028C0000026C0000024C0000022C000008C
:1000E00020C0000011241FBECFEFD1E2DEBFCDBF84
:1000F00000E00CBF13E0A0E0B2E0E8E1F9E000E0CE
:100100000BBF02C007900D92A432B107D9F723E0CC
:10011000A4E2B3E001C01D92A437B207E1F7ECD12D
:10012000F9C36ECF88E080937B0087E080937A00EC
:100130008FEF80937D000895806880937C00EAE7CC
:10014000F0E08081806C8083808186FDFDCF2091EE
:10015000780080917900EAE7F0E090819F779083C2
:1001600090E0982F8827820F911D0895662369F0EB
:1001700040B321E030E0B90102C0660F771F8A95D5
:10018000E2F7CB01842B80BB089540B321E030E03F
:10019000B90102C0660F771F8A95E2F7CB018095FF
:1001A000842380BB08952FB130E0A90102C055958A
:1001B00047958A95E2F7CA0181700895662369F030
:1001C00041B321E030E0B90102C0660F771F8A9584
:1001D000E2F7CB01842B81BB089541B321E030E0ED
:1001E000B90102C0660F771F8A95E2F7CB018095AF
:1001F000842381BB089580E884B980E283BB82EACE
:1002000084BD0895FC0120812223C1F0FB013081CF
:100210003323D9F023130EC0DC011196319602C0AE
:1002200092130AC0BF019D91992341F021912111A0
:10023000F7CF0BC080E0089580E0089581E0FB01D6
:100240009081992341F080E0089581E0FB01908145
:10025000911101C080E00895EF92FF920F931F93D8
:10026000CF93DF937C0100E012E0C0E0D0E0B80162
:10027000C701C8DF882311F08C2F07C02196065FC5
:100280001F4FC630D10599F786E0DF91CF911F91BE
:100290000F91FF90EF900895FC0120812223A9F097
:1002A000319680E090E0AC01440F551F880F991FF4
:1002B000880F991F880F991F840F951F820F911D1A
:1002C000C09721912111EFCF089580E090E008952B
:1002D0000F931F93CF93DF93EC01CB010097B9F1FC
:1002E0009E012F5F3F4FE0E0F0E0042F10E001C0DF
:1002F000FA01B801E8D28A30910520F0D901895C71
:10030000888303C0D901805D8883AF014F5F5F4F51
:100310002F5F3F4F2196862F972F009749F71C920A
:10032000A41BB50B1E161F069CF4AF013196EA0FF5
:10033000FB1F80E090E02C91019632913D93208349
:100340009A01281B390B82179307ACF301C018825E
:10035000DF91CF911F910F910895FB0120812223FE
:1003600041F031960196DC0111972C9321912111D6
:10037000F9CFFC01108208950F931F93CF93DF9361
:10038000AC018B01DB018C918032D9F49B012F5F92
:100390003F4FF9012F5F3F4F90819032D1F312C050
:1003A0009E012F5F3F4FA901FD0198839D91E901B7
:1003B000292F2F7DA9F7DA011C92BF01C801CDDFDB
:1003C00008C0FB0190819923B1F3EA01DF01119686
:1003D000E7CFDF91CF911F910F910895EF92FF9298
:1003E0000F931F93CF93DF93CDB7DEB72A970FB646
:1003F000F894DEBF0FBECDBF8C010F2EF2E4EF2EBE
:10040000F3E0FF2EF02DB801CE010196B5DF898112
:10041000882359F0BE016F5F7F4FC7019EDF8AE0DE
:10042000E80EF11C89818111EECF2A960FB6F8945F
:10043000DEBF0FBECDBFDF91CF911F910F91FF9017
:10044000EF90089582E08093C00088E18093C1001E
:1004500086E08093C20087E690E09093C500809389
:10046000C4000895E0ECF0E0908195FFFDCF80930B
:10047000C6000895CF93DF93EC018881882329F08B
:100480002196F0DF89918111FCCFDF91CF91089502
:10049000E0ECF0E080818823ECF78091C6000895BD
:1004A000EF92FF920F931F93CF938C01E12CF12CCD
:1004B000EFDFC82F883059F08D30B1F0D3DFF8016D
:1004C000C083FFEFEF1AFF0A0F5F1F4FF1CF1E141B
:1004D0001F0474F788E0C6DF80E2C4DF88E0C2DF73
:1004E000F80112928F01E4CFF8011082CF911F9191
:1004F0000F91FF90EF90089515DE7DDEA3DF0F2EA4
:10050000F0EDAF2EF3E0BF2EF02D0F2EF4E6CF2E40
:10051000D12CF02DEE24E394F12C03E08CE392E057
:10052000A9DF8EE293E0BCDF8EE293E057DF82E446
:1005300093E092DEC82F8CE493E0AEDED82FC43077
:1005400020F486E593E0A8DE182FC23031F128F4BC
:10055000CC2359F0C130A9F090C0C43009F46CC06C
:1005600078F1C53009F475C088C0D83030F4123045
:1005700020F4612F8D2FFADDD1CF84E592E07ADF70
:10058000CDCFD83030F4123020F4612F8D2F16DE0D
:10059000C5CF84E592E06EDFC1CFD83068F481E545
:1005A00092E068DF8D2FFFDD882319F081E35ADFA9
:1005B000B5CF80E357DFB2CF8CE792E05BDFAECF01
:1005C000D23008F035C0153698F585B5811102C0D6
:1005D00005BDA4CFDD23B1F01A9DC0011B9D900D78
:1005E0001124B60184D1C70182D1072E000C880BDB
:1005F000990BDDD02DEB37E346E856E342D0A9D086
:1006000068BD8CCF1A9DC0011B9D900D1124B601B1
:100610006ED1C7016CD1072E000C880B990BC7D087
:100620002DEB37E346E856E32CD093D067BD76CF69
:100630008CE792E01FDF72CFD23038F485B581119C
:100640006DCF83EA92E016DF69CF8EEB92E012DF86
:1006500065CFD83070F48D2F6FDD4AE0BC0184E2A5
:1006600093E036DE8CEE92E005DF84E293E002DF79
:1006700055CF8CE792E0FEDE51CF80E193E0FADEC9
:100680004DCF0CD0E6C0DED040F0D5D030F021F414
:100690005F3F19F0C7C0511110C1CAC0EBD098F329
:1006A0009923C9F35523B1F3951B550BBB27AA27F3
:1006B00062177307840738F09F5F5F4F220F331F65
:1006C000441FAA1FA9F333D00E2E3AF0E0E830D031
:1006D00091505040E695001CCAF729D0FE2F27D034
:1006E000660F771F881FBB1F261737074807AB0702
:1006F000B0E809F0BB0B802DBF01FF2793585F4F77
:100700002AF09E3F510568F08DC0D7C05F3FECF3E3
:10071000983EDCF3869577956795B795F7959F5F3B
:10072000C9F7880F911D9695879597F90895E1E08F
:10073000660F771F881FBB1F621773078407BA07EE
:1007400020F0621B730B840BBA0BEE1F88F7E09549
:10075000089598D088F09F5790F0B92F9927B751F6
:10076000A0F0D1F0660F771F881F991F1AF0BA9575
:10077000C9F712C0B13081F09FD0B1E008959CC09C
:10078000672F782F8827B85F39F0B93FCCF386956B
:1007900077956795B395D9F73EF4909580957095C8
:1007A00061957F4F8F4F9F4F0895E89409C097FB45
:1007B0003EF490958095709561957F4F8F4F9F4F38
:1007C0009923A9F0F92F96E9BB279395F69587957C
:1007D00077956795B795F111F8CFFAF4BB0F11F43F
:1007E00060FF1BC06F5F7F4F8F4F9F4F16C08823E6
:1007F00011F096E911C0772321F09EE8872F762F1C
:1008000005C0662371F096E8862F70E060E02AF05C
:100810009A95660F771F881FDAF7880F9695879548
:1008200097F9089597F99F6780E870E060E0089570
:100830009FEF80EC089500240A94161617061806F8
:100840000906089500240A941216130614060506D4
:100850000895092E0394000C11F4882352F0BB0F65
:1008600040F4BF2B11F460FF04C06F5F7F4F8F4FC8
:100870009F4F089557FD9058440F551F59F05F3F03
:1008800071F04795880F97FB991F61F09F3F79F0B2
:1008900087950895121613061406551FF2CF469534
:1008A000F1DF08C0161617061806991FF1CF8695B6
:1008B0007105610508940895E894BB27662777279A
:1008C000CB0197F90895AA1BBB1B51E107C0AA1FD2
:1008D000BB1FA617B70710F0A61BB70B881F991FE1
:1008E0005A95A9F780959095BC01CD01089597FB85
:1008F000072E16F4009406D077FD08D0E4DF07FC3D
:1009000005D03EF4909581959F4F0895709561951F
:080910007F4F0895F894FFCF1A
:100918006366000000000000000077660000000029
:100928000000000072620000000000000000777004
:1009380000000000000000007270000000000000CD
:100948000000726100000000000000000A0D4573FD
:10095800637269626120737520636F6D616E646F85
:100968003A0A0D000A0D4572726F722C20706F7270
:10097800206661766F7220696E74C3A96E74656CA7
:100988006F206465206E7565766F2E000A0D4572BE
:10099800726F722C20706F72206661766F72206998
:1009A8006E74656E74656C6F206465206E7565760F
:1009B8006F2E000A0D4572726F722C2050574D2011
:1009C8006E6F20656E63656E6469646F2E000A0D34
:1009D8004572726F722064652070776D2C20706F7D
:1009E80072206661766F7220696E74656E74656CCC
:1009F8006F206465206E7565766F2E000A0D4D6553
:100A0800646963696F6E2064656C20616463207338
:100A1800656C656363696F6E61646F2065733A0026
:100A28000A0D496E74656E7465206465206E75657F
:040A3800766F2E00A7
:00000001FF
